{
  "_format": "hh-sol-artifact-1",
  "contractName": "SupplyChain",
  "sourceName": "contracts/SupplyChain.sol",
  "abi": [
    {
      "inputs": [],
      "stateMutability": "nonpayable",
      "type": "constructor"
    },
    {
      "inputs": [],
      "name": "AccessControlBadConfirmation",
      "type": "error"
    },
    {
      "inputs": [
        {
          "internalType": "address",
          "name": "account",
          "type": "address"
        },
        {
          "internalType": "bytes32",
          "name": "neededRole",
          "type": "bytes32"
        }
      ],
      "name": "AccessControlUnauthorizedAccount",
      "type": "error"
    },
    {
      "anonymous": false,
      "inputs": [
        {
          "indexed": true,
          "internalType": "uint256",
          "name": "id",
          "type": "uint256"
        },
        {
          "indexed": true,
          "internalType": "address",
          "name": "from",
          "type": "address"
        },
        {
          "indexed": true,
          "internalType": "address",
          "name": "to",
          "type": "address"
        },
        {
          "indexed": false,
          "internalType": "string",
          "name": "location",
          "type": "string"
        }
      ],
      "name": "CustodyTransferred",
      "type": "event"
    },
    {
      "anonymous": false,
      "inputs": [
        {
          "indexed": true,
          "internalType": "uint256",
          "name": "id",
          "type": "uint256"
        },
        {
          "indexed": true,
          "internalType": "address",
          "name": "customer",
          "type": "address"
        },
        {
          "indexed": false,
          "internalType": "string",
          "name": "customerName",
          "type": "string"
        },
        {
          "indexed": false,
          "internalType": "string",
          "name": "location",
          "type": "string"
        },
        {
          "indexed": false,
          "internalType": "uint256",
          "name": "timestamp",
          "type": "uint256"
        }
      ],
      "name": "CustomerOwnershipClaimed",
      "type": "event"
    },
    {
      "anonymous": false,
      "inputs": [
        {
          "indexed": true,
          "internalType": "uint256",
          "name": "id",
          "type": "uint256"
        },
        {
          "indexed": true,
          "internalType": "address",
          "name": "from",
          "type": "address"
        }
      ],
      "name": "HandoverGenerated",
      "type": "event"
    },
    {
      "anonymous": false,
      "inputs": [
        {
          "indexed": true,
          "internalType": "uint256",
          "name": "id",
          "type": "uint256"
        },
        {
          "indexed": true,
          "internalType": "address",
          "name": "from",
          "type": "address"
        },
        {
          "indexed": true,
          "internalType": "address",
          "name": "to",
          "type": "address"
        }
      ],
      "name": "OwnershipTransferred",
      "type": "event"
    },
    {
      "anonymous": false,
      "inputs": [
        {
          "indexed": true,
          "internalType": "uint256",
          "name": "id",
          "type": "uint256"
        },
        {
          "indexed": true,
          "internalType": "address",
          "name": "newOwner",
          "type": "address"
        }
      ],
      "name": "ProductClaimed",
      "type": "event"
    },
    {
      "anonymous": false,
      "inputs": [
        {
          "indexed": true,
          "internalType": "uint256",
          "name": "id",
          "type": "uint256"
        },
        {
          "indexed": true,
          "internalType": "address",
          "name": "manufacturer",
          "type": "address"
        },
        {
          "indexed": false,
          "internalType": "string",
          "name": "name",
          "type": "string"
        }
      ],
      "name": "ProductCreated",
      "type": "event"
    },
    {
      "anonymous": false,
      "inputs": [
        {
          "indexed": true,
          "internalType": "uint256",
          "name": "id",
          "type": "uint256"
        },
        {
          "indexed": true,
          "internalType": "address",
          "name": "verifier",
          "type": "address"
        },
        {
          "indexed": false,
          "internalType": "uint256",
          "name": "timestamp",
          "type": "uint256"
        },
        {
          "indexed": false,
          "internalType": "address",
          "name": "originalOwner",
          "type": "address"
        }
      ],
      "name": "ProductReverified",
      "type": "event"
    },
    {
      "anonymous": false,
      "inputs": [
        {
          "indexed": true,
          "internalType": "uint256",
          "name": "id",
          "type": "uint256"
        },
        {
          "indexed": true,
          "internalType": "address",
          "name": "verifier",
          "type": "address"
        },
        {
          "indexed": false,
          "internalType": "uint256",
          "name": "timestamp",
          "type": "uint256"
        }
      ],
      "name": "ProductVerified",
      "type": "event"
    },
    {
      "anonymous": false,
      "inputs": [
        {
          "indexed": true,
          "internalType": "bytes32",
          "name": "role",
          "type": "bytes32"
        },
        {
          "indexed": true,
          "internalType": "bytes32",
          "name": "previousAdminRole",
          "type": "bytes32"
        },
        {
          "indexed": true,
          "internalType": "bytes32",
          "name": "newAdminRole",
          "type": "bytes32"
        }
      ],
      "name": "RoleAdminChanged",
      "type": "event"
    },
    {
      "anonymous": false,
      "inputs": [
        {
          "indexed": true,
          "internalType": "bytes32",
          "name": "role",
          "type": "bytes32"
        },
        {
          "indexed": true,
          "internalType": "address",
          "name": "account",
          "type": "address"
        },
        {
          "indexed": true,
          "internalType": "address",
          "name": "sender",
          "type": "address"
        }
      ],
      "name": "RoleGranted",
      "type": "event"
    },
    {
      "anonymous": false,
      "inputs": [
        {
          "indexed": true,
          "internalType": "bytes32",
          "name": "role",
          "type": "bytes32"
        },
        {
          "indexed": true,
          "internalType": "address",
          "name": "account",
          "type": "address"
        },
        {
          "indexed": true,
          "internalType": "address",
          "name": "sender",
          "type": "address"
        }
      ],
      "name": "RoleRevoked",
      "type": "event"
    },
    {
      "inputs": [],
      "name": "DEFAULT_ADMIN_ROLE",
      "outputs": [
        {
          "internalType": "bytes32",
          "name": "",
          "type": "bytes32"
        }
      ],
      "stateMutability": "view",
      "type": "function"
    },
    {
      "inputs": [],
      "name": "DISTRIBUTOR_ROLE",
      "outputs": [
        {
          "internalType": "bytes32",
          "name": "",
          "type": "bytes32"
        }
      ],
      "stateMutability": "view",
      "type": "function"
    },
    {
      "inputs": [],
      "name": "MANUFACTURER_ROLE",
      "outputs": [
        {
          "internalType": "bytes32",
          "name": "",
          "type": "bytes32"
        }
      ],
      "stateMutability": "view",
      "type": "function"
    },
    {
      "inputs": [],
      "name": "RETAILER_ROLE",
      "outputs": [
        {
          "internalType": "bytes32",
          "name": "",
          "type": "bytes32"
        }
      ],
      "stateMutability": "view",
      "type": "function"
    },
    {
      "inputs": [
        {
          "internalType": "uint256",
          "name": "_id",
          "type": "uint256"
        },
        {
          "internalType": "string",
          "name": "_scratchCode",
          "type": "string"
        },
        {
          "internalType": "string",
          "name": "_customerName",
          "type": "string"
        },
        {
          "internalType": "string",
          "name": "_location",
          "type": "string"
        }
      ],
      "name": "claimOwnership",
      "outputs": [],
      "stateMutability": "nonpayable",
      "type": "function"
    },
    {
      "inputs": [
        {
          "internalType": "string",
          "name": "_name",
          "type": "string"
        },
        {
          "internalType": "bytes32",
          "name": "_consumerSecretHash",
          "type": "bytes32"
        },
        {
          "internalType": "bytes32",
          "name": "_firstHandoverHash",
          "type": "bytes32"
        },
        {
          "internalType": "string",
          "name": "_productCertificate",
          "type": "string"
        }
      ],
      "name": "createProduct",
      "outputs": [
        {
          "internalType": "uint256",
          "name": "",
          "type": "uint256"
        }
      ],
      "stateMutability": "nonpayable",
      "type": "function"
    },
    {
      "inputs": [
        {
          "internalType": "uint256",
          "name": "_id",
          "type": "uint256"
        }
      ],
      "name": "getHistory",
      "outputs": [
        {
          "components": [
            {
              "internalType": "address",
              "name": "actor",
              "type": "address"
            },
            {
              "internalType": "enum SupplyChain.State",
              "name": "state",
              "type": "uint8"
            },
            {
              "internalType": "uint256",
              "name": "timestamp",
              "type": "uint256"
            },
            {
              "internalType": "string",
              "name": "location",
              "type": "string"
            }
          ],
          "internalType": "struct SupplyChain.HistoryEntry[]",
          "name": "",
          "type": "tuple[]"
        }
      ],
      "stateMutability": "view",
      "type": "function"
    },
    {
      "inputs": [
        {
          "internalType": "uint256",
          "name": "_id",
          "type": "uint256"
        }
      ],
      "name": "getProduct",
      "outputs": [
        {
          "components": [
            {
              "internalType": "uint256",
              "name": "id",
              "type": "uint256"
            },
            {
              "internalType": "string",
              "name": "name",
              "type": "string"
            },
            {
              "internalType": "address",
              "name": "currentOwner",
              "type": "address"
            },
            {
              "internalType": "enum SupplyChain.State",
              "name": "state",
              "type": "uint8"
            },
            {
              "internalType": "bytes32",
              "name": "consumerSecretHash",
              "type": "bytes32"
            },
            {
              "internalType": "bytes32",
              "name": "currentHandoverHash",
              "type": "bytes32"
            },
            {
              "internalType": "bool",
              "name": "isConsumed",
              "type": "bool"
            },
            {
              "internalType": "bool",
              "name": "exists",
              "type": "bool"
            },
            {
              "components": [
                {
                  "internalType": "address",
                  "name": "verifier",
                  "type": "address"
                },
                {
                  "internalType": "uint256",
                  "name": "timestamp",
                  "type": "uint256"
                },
                {
                  "internalType": "string",
                  "name": "location",
                  "type": "string"
                },
                {
                  "internalType": "string",
                  "name": "remarks",
                  "type": "string"
                }
              ],
              "internalType": "struct SupplyChain.VerificationLog[]",
              "name": "verificationHistory",
              "type": "tuple[]"
            },
            {
              "components": [
                {
                  "internalType": "string",
                  "name": "customerName",
                  "type": "string"
                },
                {
                  "internalType": "string",
                  "name": "location",
                  "type": "string"
                },
                {
                  "internalType": "uint256",
                  "name": "timestamp",
                  "type": "uint256"
                },
                {
                  "internalType": "address",
                  "name": "claimedBy",
                  "type": "address"
                },
                {
                  "internalType": "bool",
                  "name": "isClaimed",
                  "type": "bool"
                }
              ],
              "internalType": "struct SupplyChain.CustomerClaim",
              "name": "customerClaim",
              "type": "tuple"
            },
            {
              "internalType": "string",
              "name": "productCertificate",
              "type": "string"
            }
          ],
          "internalType": "struct SupplyChain.Product",
          "name": "",
          "type": "tuple"
        }
      ],
      "stateMutability": "view",
      "type": "function"
    },
    {
      "inputs": [
        {
          "internalType": "bytes32",
          "name": "role",
          "type": "bytes32"
        }
      ],
      "name": "getRoleAdmin",
      "outputs": [
        {
          "internalType": "bytes32",
          "name": "",
          "type": "bytes32"
        }
      ],
      "stateMutability": "view",
      "type": "function"
    },
    {
      "inputs": [
        {
          "internalType": "uint256",
          "name": "_id",
          "type": "uint256"
        }
      ],
      "name": "getVerificationHistory",
      "outputs": [
        {
          "components": [
            {
              "internalType": "address",
              "name": "verifier",
              "type": "address"
            },
            {
              "internalType": "uint256",
              "name": "timestamp",
              "type": "uint256"
            },
            {
              "internalType": "string",
              "name": "location",
              "type": "string"
            },
            {
              "internalType": "string",
              "name": "remarks",
              "type": "string"
            }
          ],
          "internalType": "struct SupplyChain.VerificationLog[]",
          "name": "",
          "type": "tuple[]"
        }
      ],
      "stateMutability": "view",
      "type": "function"
    },
    {
      "inputs": [
        {
          "internalType": "bytes32",
          "name": "role",
          "type": "bytes32"
        },
        {
          "internalType": "address",
          "name": "account",
          "type": "address"
        }
      ],
      "name": "grantRole",
      "outputs": [],
      "stateMutability": "nonpayable",
      "type": "function"
    },
    {
      "inputs": [
        {
          "internalType": "bytes32",
          "name": "role",
          "type": "bytes32"
        },
        {
          "internalType": "address",
          "name": "account",
          "type": "address"
        }
      ],
      "name": "hasRole",
      "outputs": [
        {
          "internalType": "bool",
          "name": "",
          "type": "bool"
        }
      ],
      "stateMutability": "view",
      "type": "function"
    },
    {
      "inputs": [
        {
          "internalType": "uint256",
          "name": "",
          "type": "uint256"
        },
        {
          "internalType": "uint256",
          "name": "",
          "type": "uint256"
        }
      ],
      "name": "productHistory",
      "outputs": [
        {
          "internalType": "address",
          "name": "actor",
          "type": "address"
        },
        {
          "internalType": "enum SupplyChain.State",
          "name": "state",
          "type": "uint8"
        },
        {
          "internalType": "uint256",
          "name": "timestamp",
          "type": "uint256"
        },
        {
          "internalType": "string",
          "name": "location",
          "type": "string"
        }
      ],
      "stateMutability": "view",
      "type": "function"
    },
    {
      "inputs": [
        {
          "internalType": "uint256",
          "name": "",
          "type": "uint256"
        }
      ],
      "name": "products",
      "outputs": [
        {
          "internalType": "uint256",
          "name": "id",
          "type": "uint256"
        },
        {
          "internalType": "string",
          "name": "name",
          "type": "string"
        },
        {
          "internalType": "address",
          "name": "currentOwner",
          "type": "address"
        },
        {
          "internalType": "enum SupplyChain.State",
          "name": "state",
          "type": "uint8"
        },
        {
          "internalType": "bytes32",
          "name": "consumerSecretHash",
          "type": "bytes32"
        },
        {
          "internalType": "bytes32",
          "name": "currentHandoverHash",
          "type": "bytes32"
        },
        {
          "internalType": "bool",
          "name": "isConsumed",
          "type": "bool"
        },
        {
          "internalType": "bool",
          "name": "exists",
          "type": "bool"
        },
        {
          "components": [
            {
              "internalType": "string",
              "name": "customerName",
              "type": "string"
            },
            {
              "internalType": "string",
              "name": "location",
              "type": "string"
            },
            {
              "internalType": "uint256",
              "name": "timestamp",
              "type": "uint256"
            },
            {
              "internalType": "address",
              "name": "claimedBy",
              "type": "address"
            },
            {
              "internalType": "bool",
              "name": "isClaimed",
              "type": "bool"
            }
          ],
          "internalType": "struct SupplyChain.CustomerClaim",
          "name": "customerClaim",
          "type": "tuple"
        },
        {
          "internalType": "string",
          "name": "productCertificate",
          "type": "string"
        }
      ],
      "stateMutability": "view",
      "type": "function"
    },
    {
      "inputs": [
        {
          "internalType": "uint256",
          "name": "_id",
          "type": "uint256"
        },
        {
          "internalType": "string",
          "name": "_location",
          "type": "string"
        },
        {
          "internalType": "string",
          "name": "_remarks",
          "type": "string"
        }
      ],
      "name": "recordVerification",
      "outputs": [],
      "stateMutability": "nonpayable",
      "type": "function"
    },
    {
      "inputs": [
        {
          "internalType": "bytes32",
          "name": "role",
          "type": "bytes32"
        },
        {
          "internalType": "address",
          "name": "callerConfirmation",
          "type": "address"
        }
      ],
      "name": "renounceRole",
      "outputs": [],
      "stateMutability": "nonpayable",
      "type": "function"
    },
    {
      "inputs": [
        {
          "internalType": "bytes32",
          "name": "role",
          "type": "bytes32"
        },
        {
          "internalType": "address",
          "name": "account",
          "type": "address"
        }
      ],
      "name": "revokeRole",
      "outputs": [],
      "stateMutability": "nonpayable",
      "type": "function"
    },
    {
      "inputs": [
        {
          "internalType": "bytes4",
          "name": "interfaceId",
          "type": "bytes4"
        }
      ],
      "name": "supportsInterface",
      "outputs": [
        {
          "internalType": "bool",
          "name": "",
          "type": "bool"
        }
      ],
      "stateMutability": "view",
      "type": "function"
    },
    {
      "inputs": [
        {
          "internalType": "uint256",
          "name": "_id",
          "type": "uint256"
        },
        {
          "internalType": "string",
          "name": "_incomingKey",
          "type": "string"
        },
        {
          "internalType": "bytes32",
          "name": "_nextKeyHash",
          "type": "bytes32"
        },
        {
          "internalType": "string",
          "name": "_location",
          "type": "string"
        }
      ],
      "name": "transferCustody",
      "outputs": [],
      "stateMutability": "nonpayable",
      "type": "function"
    },
    {
      "inputs": [
        {
          "internalType": "uint256",
          "name": "_id",
          "type": "uint256"
        },
        {
          "internalType": "address",
          "name": "_to",
          "type": "address"
        }
      ],
      "name": "transferOwnership",
      "outputs": [],
      "stateMutability": "nonpayable",
      "type": "function"
    },
    {
      "inputs": [
        {
          "internalType": "uint256",
          "name": "",
          "type": "uint256"
        }
      ],
      "name": "verifyLog",
      "outputs": [
        {
          "internalType": "address",
          "name": "verifier",
          "type": "address"
        },
        {
          "internalType": "uint256",
          "name": "time",
          "type": "uint256"
        },
        {
          "internalType": "bool",
          "name": "isFirstClaim",
          "type": "bool"
        }
      ],
      "stateMutability": "view",
      "type": "function"
    }
  ],
  "bytecode": "0x6080604052600060015534801561001557600080fd5b50610021600033610052565b5061004c7f6659d833875b88922d2576dad6c137a09ba676496bb2010bf8a72397792167a033610052565b506100fe565b6000828152602081815260408083206001600160a01b038516845290915281205460ff166100f4576000838152602081815260408083206001600160a01b03861684529091529020805460ff191660011790556100ac3390565b6001600160a01b0316826001600160a01b0316847f2f8788117e7eff1d82e926ec794901d17c78024a50270940304540a733656f0d60405160405180910390a45060016100f8565b5060005b92915050565b6129168061010d6000396000f3fe608060405234801561001057600080fd5b50600436106101375760003560e01c806362fcd677116100b8578063a217fddf1161007c578063a217fddf146102e9578063afe3cf90146102f1578063b9db15b414610354578063c8691b2a14610374578063d547741f14610394578063f0bd87cc146103a757600080fd5b806362fcd677146102605780637acc0b20146102735780637ecd70f41461029c57806391d14854146102af578063965288b0146102c257600080fd5b806329507f73116100ff57806329507f73146101e45780632f2ff15d146101f757806336568abe1461020a5780633a7d23761461021d578063405234751461024057600080fd5b806301ffc9a71461013c5780630e73476c146101645780631569a749146101855780632115e7bf1461019a578063248a9ca3146101c1575b600080fd5b61014f61014a366004611e46565b6103ce565b60405190151581526020015b60405180910390f35b610177610172366004611ebf565b610405565b60405190815260200161015b565b610198610193366004611f45565b610505565b005b6101777f27d5ccc46db01bfa5691ce092fe276221c6cd0aa6d05765b52c3ddecfa70421a81565b6101776101cf366004611fc2565b60009081526020819052604090206001015490565b6101986101f2366004611ff7565b6106a0565b610198610205366004611ff7565b6108f2565b610198610218366004611ff7565b61091d565b61023061022b366004612023565b610955565b60405161015b94939291906120cd565b61025361024e366004611fc2565b610a36565b60405161015b91906121ab565b61019861026e366004612261565b610c20565b610286610281366004611fc2565b610f0e565b60405161015b9a9998979695949392919061233e565b6101986102aa3660046123ca565b6111e4565b61014f6102bd366004611ff7565b6114ad565b6101777f6659d833875b88922d2576dad6c137a09ba676496bb2010bf8a72397792167a081565b610177600081565b61032d6102ff366004611fc2565b6004602052600090815260409020805460018201546002909201546001600160a01b03909116919060ff1683565b604080516001600160a01b039094168452602084019290925215159082015260600161015b565b610367610362366004611fc2565b6114d6565b60405161015b919061244d565b610387610382366004611fc2565b6119c7565b60405161015b9190612542565b6101986103a2366004611ff7565b611b41565b6101777f85faced7bde13e1a7dad704b895f006e704f207617d68166b31ba2d79624862d81565b60006001600160e01b03198216637965db0b60e01b14806103ff57506301ffc9a760e01b6001600160e01b03198316145b92915050565b6001805460009182610416836125e5565b90915550506001805460008181526002602052604090208181559091810161043f898b8361268e565b506002810180546001600160a81b0319163360ff60a01b1916179055600381018790556004810186905560058101805461ffff1916610100179055600b810161048985878361268e565b506104b582600060405180604001604052806007815260200166466163746f727960c81b815250611b66565b336001600160a01b0316827f91bfc064380de20e1c90ea2ed78d0358b4ab45d446c0b93b0b07bc86f95897da8b8b6040516104f192919061274d565b60405180910390a350979650505050505050565b6000858152600260205260409020600501548590610100900460ff166105465760405162461bcd60e51b815260040161053d9061277c565b60405180910390fd5b600260008781526020019081526020016000206006016040518060800160405280336001600160a01b0316815260200142815260200187878080601f016020809104026020016040519081016040528093929190818152602001838380828437600092019190915250505090825250604080516020601f8801819004810282018101909252868152918101919087908790819084018382808284376000920182905250939094525050835460018082018655948252602091829020845160049092020180546001600160a01b0319166001600160a01b039092169190911781559083015193810193909355506040810151909190600282019061064990826127bd565b506060820151600382019061065e90826127bd565b505060405142815233915087907fa913def5e0a2f15c60fa63fe23979256a1ff8d6d893238336fa0683b9951266d9060200160405180910390a3505050505050565b6000828152600260205260409020600501548290610100900460ff166106d85760405162461bcd60e51b815260040161053d9061277c565b6000838152600260208190526040909120015483906001600160a01b031633146107545760405162461bcd60e51b815260206004820152602760248201527f4163636573733a2043616c6c6572206973206e6f74207468652063757272656e6044820152663a1037bbb732b960c91b606482015260840161053d565b8360038060008381526002602081905260409091200154600160a01b900460ff16600481111561078657610786612045565b146107df5760405162461bcd60e51b8152602060048201526024808201527f4c6f6769633a20496e76616c696420737461746520666f7220746869732061636044820152633a34b7b760e11b606482015260840161053d565b6001600160a01b0385166108405760405162461bcd60e51b815260206004820152602260248201527f4c6f6769633a20496e76616c69642064657374696e6174696f6e206164647265604482015261737360f01b606482015260840161053d565b60008681526002602081815260409283902090910180546001600160a01b038981166001600160a01b03198316179092558351808501909452601084526f14d958dbdb99185c9e4813585c9ad95d60821b9284019290925216906108a8908890600390611b66565b856001600160a01b0316816001600160a01b0316887f16b85f49bf01212961345d3016c9a531894accf62eb7680f2045d79185cc0ec060405160405180910390a450505050505050565b60008281526020819052604090206001015461090d81611c46565b6109178383611c53565b50505050565b6001600160a01b03811633146109465760405163334bd91960e11b815260040160405180910390fd5b6109508282611ce5565b505050565b6003602052816000526040600020818154811061097157600080fd5b60009182526020909120600390910201805460018201546002830180546001600160a01b0384169650600160a01b90930460ff1694509092916109b39061260c565b80601f01602080910402602001604051908101604052809291908181526020018280546109df9061260c565b8015610a2c5780601f10610a0157610100808354040283529160200191610a2c565b820191906000526020600020905b815481529060010190602001808311610a0f57829003601f168201915b5050505050905084565b6000818152600260205260409020600501546060908290610100900460ff16610a715760405162461bcd60e51b815260040161053d9061277c565b600083815260026020908152604080832060060180548251818502810185019093528083529193909284015b82821015610c13576000848152602090819020604080516080810182526004860290920180546001600160a01b0316835260018101549383019390935260028301805492939291840191610af09061260c565b80601f0160208091040260200160405190810160405280929190818152602001828054610b1c9061260c565b8015610b695780601f10610b3e57610100808354040283529160200191610b69565b820191906000526020600020905b815481529060010190602001808311610b4c57829003601f168201915b50505050508152602001600382018054610b829061260c565b80601f0160208091040260200160405190810160405280929190818152602001828054610bae9061260c565b8015610bfb5780601f10610bd057610100808354040283529160200191610bfb565b820191906000526020600020905b815481529060010190602001808311610bde57829003601f168201915b50505050508152505081526020019060010190610a9d565b5050505091505b50919050565b6000848152600260205260409020600501548490610100900460ff16610c585760405162461bcd60e51b815260040161053d9061277c565b84600360008281526002602081905260409091200154600160a01b900460ff166004811115610c8957610c89612045565b03610ce95760405162461bcd60e51b815260206004820152602a60248201527f53656375726974793a2050726f6475637420616c726561647920736f6c6420616044820152691b990818db185a5b595960b21b606482015260840161053d565b600086815260026020908152604091829020600401549151610d0d9188910161287b565b6040516020818303038152906040528051906020012014610d805760405162461bcd60e51b815260206004820152602760248201527f53656375726974793a20496e76616c69642068616e646f766572206b657920706044820152661c9bdd9a59195960ca1b606482015260840161053d565b6000868152600260208190526040909120018054336001600160a01b0319821681179092556001600160a01b031690610dda907f85faced7bde13e1a7dad704b895f006e704f207617d68166b31ba2d79624862d906114ad565b15610e0f5760008781526002602081905260409091200180546001919060ff60a01b1916600160a01b835b0217905550610e89565b610e397f27d5ccc46db01bfa5691ce092fe276221c6cd0aa6d05765b52c3ddecfa70421a336114ad565b15610e655760008781526002602081905260409091208101805460ff60a01b1916600160a01b83610e05565b600087815260026020819052604090912001805460ff60a01b1916600160a01b1790555b6000878152600260208190526040909120600481018790550154610eb9908890600160a01b900460ff1686611b66565b336001600160a01b0316816001600160a01b0316887fd67aa7c45f61c95d774abbdd7384089523fabb58f544debbc64c53e937d9774187604051610efd9190612897565b60405180910390a450505050505050565b60026020526000908152604090208054600182018054919291610f309061260c565b80601f0160208091040260200160405190810160405280929190818152602001828054610f5c9061260c565b8015610fa95780601f10610f7e57610100808354040283529160200191610fa9565b820191906000526020600020905b815481529060010190602001808311610f8c57829003601f168201915b50505060028401546003850154600486015460058701546040805160a0810190915260078901805498996001600160a01b0387169960ff600160a01b909804881699509597509395838116956101009094041693928290829061100b9061260c565b80601f01602080910402602001604051908101604052809291908181526020018280546110379061260c565b80156110845780601f1061105957610100808354040283529160200191611084565b820191906000526020600020905b81548152906001019060200180831161106757829003601f168201915b5050505050815260200160018201805461109d9061260c565b80601f01602080910402602001604051908101604052809291908181526020018280546110c99061260c565b80156111165780601f106110eb57610100808354040283529160200191611116565b820191906000526020600020905b8154815290600101906020018083116110f957829003601f168201915b5050509183525050600282015460208201526003909101546001600160a01b0381166040830152600160a01b900460ff161515606090910152600b820180549192916111619061260c565b80601f016020809104026020016040519081016040528092919081815260200182805461118d9061260c565b80156111da5780601f106111af576101008083540402835291602001916111da565b820191906000526020600020905b8154815290600101906020018083116111bd57829003601f168201915b505050505090508a565b6000848152600260205260409020600501548490610100900460ff1661121c5760405162461bcd60e51b815260040161053d9061277c565b6000858152600260209081526040918290206003015491516112409187910161287b565b60405160208183030381529060405280519060200120146112b75760405162461bcd60e51b815260206004820152602b60248201527f53656375726974793a20496e76616c696420736372617463682d6f666620636f60448201526a1919481c1c9bdd9a59195960aa1b606482015260840161053d565b60008581526002602052604090206005015460ff16156113285760405162461bcd60e51b815260206004820152602660248201527f50726f647563743a20416c726561647920636c61696d6564206279206120637560448201526539ba37b6b2b960d11b606482015260840161053d565b600085815260026020818152604080842080840180543360ff60a01b1981166001600160a81b0319831617600360a01b1790925560058301805460ff19166001908117909155845160a0810186528b81528087018b9052429581019590955260608501929092526080840191909152948a90529290915280516001600160a01b039093169290916007019081906113bf90826127bd565b50602082015160018201906113d490826127bd565b50604082015160028201556060820151600391820180546080909401511515600160a01b026001600160a81b03199094166001600160a01b03909216919091179290921790915561142790879085611b66565b336001600160a01b0316867f8872de29be3b60dcf930e843c87a99e4eda3ecc6e3d2b56096e92f83e10f3292868642604051611465939291906128aa565b60405180910390a360405133906001600160a01b0383169088907f16b85f49bf01212961345d3016c9a531894accf62eb7680f2045d79185cc0ec090600090a4505050505050565b6000918252602082815260408084206001600160a01b0393909316845291905290205460ff1690565b6114de611d8d565b6002600083815260200190815260200160002060405180610160016040529081600082015481526020016001820180546115179061260c565b80601f01602080910402602001604051908101604052809291908181526020018280546115439061260c565b80156115905780601f1061156557610100808354040283529160200191611590565b820191906000526020600020905b81548152906001019060200180831161157357829003601f168201915b505050918352505060028201546001600160a01b0381166020830152604090910190600160a01b900460ff1660048111156115cd576115cd612045565b60048111156115de576115de612045565b815260038201546020808301919091526004830154604080840191909152600584015460ff80821615156060860152610100909104161515608084015260068401805482518185028101850190935280835260a090940193919290919060009084015b828210156117b7576000848152602090819020604080516080810182526004860290920180546001600160a01b03168352600181015493830193909352600283018054929392918401916116949061260c565b80601f01602080910402602001604051908101604052809291908181526020018280546116c09061260c565b801561170d5780601f106116e25761010080835404028352916020019161170d565b820191906000526020600020905b8154815290600101906020018083116116f057829003601f168201915b505050505081526020016003820180546117269061260c565b80601f01602080910402602001604051908101604052809291908181526020018280546117529061260c565b801561179f5780601f106117745761010080835404028352916020019161179f565b820191906000526020600020905b81548152906001019060200180831161178257829003601f168201915b50505050508152505081526020019060010190611641565b505050508152602001600782016040518060a00160405290816000820180546117df9061260c565b80601f016020809104026020016040519081016040528092919081815260200182805461180b9061260c565b80156118585780601f1061182d57610100808354040283529160200191611858565b820191906000526020600020905b81548152906001019060200180831161183b57829003601f168201915b505050505081526020016001820180546118719061260c565b80601f016020809104026020016040519081016040528092919081815260200182805461189d9061260c565b80156118ea5780601f106118bf576101008083540402835291602001916118ea565b820191906000526020600020905b8154815290600101906020018083116118cd57829003601f168201915b505050918352505060028201546020808301919091526003909201546001600160a01b0381166040830152600160a01b900460ff161515606090910152908252600b83018054929091019161193e9061260c565b80601f016020809104026020016040519081016040528092919081815260200182805461196a9061260c565b80156119b75780601f1061198c576101008083540402835291602001916119b7565b820191906000526020600020905b81548152906001019060200180831161199a57829003601f168201915b5050505050815250509050919050565b6000818152600260205260409020600501546060908290610100900460ff16611a025760405162461bcd60e51b815260040161053d9061277c565b600083815260036020908152604080832080548251818502810185019093528083529193909284015b82821015610c1357600084815260209081902060408051608081019091526003850290910180546001600160a01b03811683529192909190830190600160a01b900460ff166004811115611a8157611a81612045565b6004811115611a9257611a92612045565b815260200160018201548152602001600282018054611ab09061260c565b80601f0160208091040260200160405190810160405280929190818152602001828054611adc9061260c565b8015611b295780601f10611afe57610100808354040283529160200191611b29565b820191906000526020600020905b815481529060010190602001808311611b0c57829003601f168201915b50505050508152505081526020019060010190611a2b565b600082815260208190526040902060010154611b5c81611c46565b6109178383611ce5565b600360008481526020019081526020016000206040518060800160405280336001600160a01b03168152602001846004811115611ba557611ba5612045565b81524260208083019190915260409091018490528254600181018455600093845292819020825160039094020180546001600160a01b039094166001600160a01b031985168117825591830151929390929183916001600160a81b03191617600160a01b836004811115611c1b57611c1b612045565b02179055506040820151600182015560608201516002820190611c3e90826127bd565b505050505050565b611c508133611d50565b50565b6000611c5f83836114ad565b611cdd576000838152602081815260408083206001600160a01b03861684529091529020805460ff19166001179055611c953390565b6001600160a01b0316826001600160a01b0316847f2f8788117e7eff1d82e926ec794901d17c78024a50270940304540a733656f0d60405160405180910390a45060016103ff565b5060006103ff565b6000611cf183836114ad565b15611cdd576000838152602081815260408083206001600160a01b0386168085529252808320805460ff1916905551339286917ff6391f5c32d9c69d2a47ea670b442974b53935d1edc7fd64eb21e047a839171b9190a45060016103ff565b611d5a82826114ad565b611d895760405163e2517d3f60e01b81526001600160a01b03821660048201526024810183905260440161053d565b5050565b604051806101600160405280600081526020016060815260200160006001600160a01b0316815260200160006004811115611dca57611dca612045565b8152602001600080191681526020016000801916815260200160001515815260200160001515815260200160608152602001611e396040518060a0016040528060608152602001606081526020016000815260200160006001600160a01b031681526020016000151581525090565b8152602001606081525090565b600060208284031215611e5857600080fd5b81356001600160e01b031981168114611e7057600080fd5b9392505050565b60008083601f840112611e8957600080fd5b5081356001600160401b03811115611ea057600080fd5b602083019150836020828501011115611eb857600080fd5b9250929050565b60008060008060008060808789031215611ed857600080fd5b86356001600160401b03811115611eee57600080fd5b611efa89828a01611e77565b909750955050602087013593506040870135925060608701356001600160401b03811115611f2757600080fd5b611f3389828a01611e77565b979a9699509497509295939492505050565b600080600080600060608688031215611f5d57600080fd5b8535945060208601356001600160401b03811115611f7a57600080fd5b611f8688828901611e77565b90955093505060408601356001600160401b03811115611fa557600080fd5b611fb188828901611e77565b969995985093965092949392505050565b600060208284031215611fd457600080fd5b5035919050565b80356001600160a01b0381168114611ff257600080fd5b919050565b6000806040838503121561200a57600080fd5b8235915061201a60208401611fdb565b90509250929050565b6000806040838503121561203657600080fd5b50508035926020909101359150565b634e487b7160e01b600052602160045260246000fd5b6005811061207957634e487b7160e01b600052602160045260246000fd5b9052565b60005b83811015612098578181015183820152602001612080565b50506000910152565b600081518084526120b981602086016020860161207d565b601f01601f19169290920160200192915050565b6001600160a01b03851681526120e6602082018561205b565b82604082015260806060820152600061210260808301846120a1565b9695505050505050565b600082825180855260208501945060208160051b8301016020850160005b8381101561219f57601f19858403018852815160018060a01b0381511684526020810151602085015260408101516080604086015261216c60808601826120a1565b905060608201519150848103606086015261218781836120a1565b60209a8b019a9095509390930192505060010161212a565b50909695505050505050565b602081526000611e70602083018461210c565b634e487b7160e01b600052604160045260246000fd5b600082601f8301126121e557600080fd5b81356001600160401b038111156121fe576121fe6121be565b604051601f8201601f19908116603f011681016001600160401b038111828210171561222c5761222c6121be565b60405281815283820160200185101561224457600080fd5b816020850160208301376000918101602001919091529392505050565b6000806000806080858703121561227757600080fd5b8435935060208501356001600160401b0381111561229457600080fd5b6122a0878288016121d4565b9350506040850135915060608501356001600160401b038111156122c357600080fd5b6122cf878288016121d4565b91505092959194509250565b6000815160a084526122f060a08501826120a1565b90506020830151848203602086015261230982826120a1565b604085810151908701526060808601516001600160a01b03169087015260809485015115159490950193909352509192915050565b8a81526101406020820152600061235961014083018c6120a1565b6001600160a01b038b166040840152612375606084018b61205b565b8860808401528760a084015286151560c084015285151560e08401528281036101008401526123a481866122db565b90508281036101208401526123b981856120a1565b9d9c50505050505050505050505050565b600080600080608085870312156123e057600080fd5b8435935060208501356001600160401b038111156123fd57600080fd5b612409878288016121d4565b93505060408501356001600160401b0381111561242557600080fd5b612431878288016121d4565b92505060608501356001600160401b038111156122c357600080fd5b60208152815160208201526000602083015161016060408401526124756101808401826120a1565b9050604084015161249160608501826001600160a01b03169052565b5060608401516124a4608085018261205b565b50608084015160a084015260a084015160c084015260c08401516124cc60e085018215159052565b5060e084015180151561010085015250610100840151838203601f19016101208501526124f9828261210c565b915050610120840151601f198483030161014085015261251982826122db565b915050610140840151601f198483030161016085015261253982826120a1565b95945050505050565b6000602082016020835280845180835260408501915060408160051b86010192506020860160005b828110156125d957868503603f19018452815180516001600160a01b031686526020808201519061259d9088018261205b565b506040810151604087015260608101519050608060608701526125c360808701826120a1565b955050602093840193919091019060010161256a565b50929695505050505050565b60006001820161260557634e487b7160e01b600052601160045260246000fd5b5060010190565b600181811c9082168061262057607f821691505b602082108103610c1a57634e487b7160e01b600052602260045260246000fd5b601f82111561095057806000526020600020601f840160051c810160208510156126675750805b601f840160051c820191505b818110156126875760008155600101612673565b5050505050565b6001600160401b038311156126a5576126a56121be565b6126b9836126b3835461260c565b83612640565b6000601f8411600181146126ed57600085156126d55750838201355b600019600387901b1c1916600186901b178355612687565b600083815260209020601f19861690835b8281101561271e57868501358255602094850194600190920191016126fe565b508682101561273b5760001960f88860031b161c19848701351681555b505060018560011b0183555050505050565b60208152816020820152818360408301376000818301604090810191909152601f909201601f19160101919050565b60208082526021908201527f4c6f6f6b75703a2050726f6475637420494420646f6573206e6f7420657869736040820152601d60fa1b606082015260800190565b81516001600160401b038111156127d6576127d66121be565b6127ea816127e4845461260c565b84612640565b6020601f82116001811461281e57600083156128065750848201515b600019600385901b1c1916600184901b178455612687565b600084815260208120601f198516915b8281101561284e578785015182556020948501946001909201910161282e565b508482101561286c5786840151600019600387901b60f8161c191681555b50505050600190811b01905550565b6000825161288d81846020870161207d565b9190910192915050565b602081526000611e7060208301846120a1565b6060815260006128bd60608301866120a1565b82810360208401526128cf81866120a1565b91505082604083015294935050505056fea2646970667358221220b609b0172aadd5c19eeb0edea6be97adfa9413244ac54a6b21c7d32e07f221af64736f6c634300081c0033",
  "linkReferences": {},
  "deployedLinkReferences": {}
}