{
  "_format": "hh-sol-artifact-1",
  "contractName": "SupplyChain",
  "sourceName": "contracts/SupplyChain.sol",
  "abi": [
    {
      "inputs": [],
      "stateMutability": "nonpayable",
      "type": "constructor"
    },
    {
      "inputs": [],
      "name": "AccessControlBadConfirmation",
      "type": "error"
    },
    {
      "inputs": [
        {
          "internalType": "address",
          "name": "account",
          "type": "address"
        },
        {
          "internalType": "bytes32",
          "name": "neededRole",
          "type": "bytes32"
        }
      ],
      "name": "AccessControlUnauthorizedAccount",
      "type": "error"
    },
    {
      "anonymous": false,
      "inputs": [
        {
          "indexed": true,
          "internalType": "uint256",
          "name": "id",
          "type": "uint256"
        },
        {
          "indexed": true,
          "internalType": "address",
          "name": "from",
          "type": "address"
        },
        {
          "indexed": true,
          "internalType": "address",
          "name": "to",
          "type": "address"
        },
        {
          "indexed": false,
          "internalType": "string",
          "name": "location",
          "type": "string"
        }
      ],
      "name": "CustodyTransferred",
      "type": "event"
    },
    {
      "anonymous": false,
      "inputs": [
        {
          "indexed": true,
          "internalType": "uint256",
          "name": "id",
          "type": "uint256"
        },
        {
          "indexed": true,
          "internalType": "address",
          "name": "customer",
          "type": "address"
        },
        {
          "indexed": false,
          "internalType": "string",
          "name": "customerName",
          "type": "string"
        },
        {
          "indexed": false,
          "internalType": "string",
          "name": "location",
          "type": "string"
        },
        {
          "indexed": false,
          "internalType": "uint256",
          "name": "timestamp",
          "type": "uint256"
        }
      ],
      "name": "CustomerOwnershipClaimed",
      "type": "event"
    },
    {
      "anonymous": false,
      "inputs": [
        {
          "indexed": true,
          "internalType": "uint256",
          "name": "id",
          "type": "uint256"
        },
        {
          "indexed": true,
          "internalType": "address",
          "name": "from",
          "type": "address"
        }
      ],
      "name": "HandoverGenerated",
      "type": "event"
    },
    {
      "anonymous": false,
      "inputs": [
        {
          "indexed": true,
          "internalType": "uint256",
          "name": "id",
          "type": "uint256"
        },
        {
          "indexed": true,
          "internalType": "address",
          "name": "from",
          "type": "address"
        },
        {
          "indexed": true,
          "internalType": "address",
          "name": "to",
          "type": "address"
        }
      ],
      "name": "OwnershipTransferred",
      "type": "event"
    },
    {
      "anonymous": false,
      "inputs": [
        {
          "indexed": true,
          "internalType": "uint256",
          "name": "id",
          "type": "uint256"
        },
        {
          "indexed": true,
          "internalType": "address",
          "name": "newOwner",
          "type": "address"
        }
      ],
      "name": "ProductClaimed",
      "type": "event"
    },
    {
      "anonymous": false,
      "inputs": [
        {
          "indexed": true,
          "internalType": "uint256",
          "name": "id",
          "type": "uint256"
        },
        {
          "indexed": true,
          "internalType": "address",
          "name": "manufacturer",
          "type": "address"
        },
        {
          "indexed": false,
          "internalType": "string",
          "name": "name",
          "type": "string"
        }
      ],
      "name": "ProductCreated",
      "type": "event"
    },
    {
      "anonymous": false,
      "inputs": [
        {
          "indexed": true,
          "internalType": "uint256",
          "name": "id",
          "type": "uint256"
        },
        {
          "indexed": true,
          "internalType": "address",
          "name": "verifier",
          "type": "address"
        },
        {
          "indexed": false,
          "internalType": "uint256",
          "name": "timestamp",
          "type": "uint256"
        },
        {
          "indexed": false,
          "internalType": "address",
          "name": "originalOwner",
          "type": "address"
        }
      ],
      "name": "ProductReverified",
      "type": "event"
    },
    {
      "anonymous": false,
      "inputs": [
        {
          "indexed": true,
          "internalType": "uint256",
          "name": "id",
          "type": "uint256"
        },
        {
          "indexed": true,
          "internalType": "address",
          "name": "verifier",
          "type": "address"
        },
        {
          "indexed": false,
          "internalType": "uint256",
          "name": "timestamp",
          "type": "uint256"
        }
      ],
      "name": "ProductVerified",
      "type": "event"
    },
    {
      "anonymous": false,
      "inputs": [
        {
          "indexed": true,
          "internalType": "bytes32",
          "name": "role",
          "type": "bytes32"
        },
        {
          "indexed": true,
          "internalType": "bytes32",
          "name": "previousAdminRole",
          "type": "bytes32"
        },
        {
          "indexed": true,
          "internalType": "bytes32",
          "name": "newAdminRole",
          "type": "bytes32"
        }
      ],
      "name": "RoleAdminChanged",
      "type": "event"
    },
    {
      "anonymous": false,
      "inputs": [
        {
          "indexed": true,
          "internalType": "bytes32",
          "name": "role",
          "type": "bytes32"
        },
        {
          "indexed": true,
          "internalType": "address",
          "name": "account",
          "type": "address"
        },
        {
          "indexed": true,
          "internalType": "address",
          "name": "sender",
          "type": "address"
        }
      ],
      "name": "RoleGranted",
      "type": "event"
    },
    {
      "anonymous": false,
      "inputs": [
        {
          "indexed": true,
          "internalType": "bytes32",
          "name": "role",
          "type": "bytes32"
        },
        {
          "indexed": true,
          "internalType": "address",
          "name": "account",
          "type": "address"
        },
        {
          "indexed": true,
          "internalType": "address",
          "name": "sender",
          "type": "address"
        }
      ],
      "name": "RoleRevoked",
      "type": "event"
    },
    {
      "inputs": [],
      "name": "DEFAULT_ADMIN_ROLE",
      "outputs": [
        {
          "internalType": "bytes32",
          "name": "",
          "type": "bytes32"
        }
      ],
      "stateMutability": "view",
      "type": "function"
    },
    {
      "inputs": [],
      "name": "DISTRIBUTOR_ROLE",
      "outputs": [
        {
          "internalType": "bytes32",
          "name": "",
          "type": "bytes32"
        }
      ],
      "stateMutability": "view",
      "type": "function"
    },
    {
      "inputs": [],
      "name": "MANUFACTURER_ROLE",
      "outputs": [
        {
          "internalType": "bytes32",
          "name": "",
          "type": "bytes32"
        }
      ],
      "stateMutability": "view",
      "type": "function"
    },
    {
      "inputs": [],
      "name": "RETAILER_ROLE",
      "outputs": [
        {
          "internalType": "bytes32",
          "name": "",
          "type": "bytes32"
        }
      ],
      "stateMutability": "view",
      "type": "function"
    },
    {
      "inputs": [
        {
          "internalType": "uint256",
          "name": "_id",
          "type": "uint256"
        },
        {
          "internalType": "string",
          "name": "_secretKey",
          "type": "string"
        },
        {
          "internalType": "bytes32",
          "name": "_nextHash",
          "type": "bytes32"
        },
        {
          "internalType": "string",
          "name": "_location",
          "type": "string"
        }
      ],
      "name": "acceptHandover",
      "outputs": [],
      "stateMutability": "nonpayable",
      "type": "function"
    },
    {
      "inputs": [
        {
          "internalType": "uint256",
          "name": "_id",
          "type": "uint256"
        },
        {
          "internalType": "string",
          "name": "_secretKey",
          "type": "string"
        },
        {
          "internalType": "string",
          "name": "_customerName",
          "type": "string"
        },
        {
          "internalType": "string",
          "name": "_location",
          "type": "string"
        }
      ],
      "name": "claimCustomerOwnership",
      "outputs": [],
      "stateMutability": "nonpayable",
      "type": "function"
    },
    {
      "inputs": [
        {
          "internalType": "string",
          "name": "_name",
          "type": "string"
        },
        {
          "internalType": "bytes32",
          "name": "_secretHash",
          "type": "bytes32"
        },
        {
          "internalType": "string",
          "name": "_productCertificate",
          "type": "string"
        }
      ],
      "name": "createProduct",
      "outputs": [
        {
          "internalType": "uint256",
          "name": "",
          "type": "uint256"
        }
      ],
      "stateMutability": "nonpayable",
      "type": "function"
    },
    {
      "inputs": [
        {
          "internalType": "uint256",
          "name": "_id",
          "type": "uint256"
        },
        {
          "internalType": "bytes32",
          "name": "_newHash",
          "type": "bytes32"
        }
      ],
      "name": "generateHandover",
      "outputs": [],
      "stateMutability": "nonpayable",
      "type": "function"
    },
    {
      "inputs": [
        {
          "internalType": "uint256",
          "name": "_id",
          "type": "uint256"
        }
      ],
      "name": "getHistory",
      "outputs": [
        {
          "components": [
            {
              "internalType": "address",
              "name": "actor",
              "type": "address"
            },
            {
              "internalType": "enum SupplyChain.State",
              "name": "state",
              "type": "uint8"
            },
            {
              "internalType": "uint256",
              "name": "timestamp",
              "type": "uint256"
            },
            {
              "internalType": "string",
              "name": "location",
              "type": "string"
            }
          ],
          "internalType": "struct SupplyChain.HistoryEntry[]",
          "name": "",
          "type": "tuple[]"
        }
      ],
      "stateMutability": "view",
      "type": "function"
    },
    {
      "inputs": [
        {
          "internalType": "uint256",
          "name": "_id",
          "type": "uint256"
        }
      ],
      "name": "getProduct",
      "outputs": [
        {
          "components": [
            {
              "internalType": "uint256",
              "name": "id",
              "type": "uint256"
            },
            {
              "internalType": "string",
              "name": "name",
              "type": "string"
            },
            {
              "internalType": "address",
              "name": "currentOwner",
              "type": "address"
            },
            {
              "internalType": "enum SupplyChain.State",
              "name": "state",
              "type": "uint8"
            },
            {
              "internalType": "bytes32",
              "name": "currentSecretHash",
              "type": "bytes32"
            },
            {
              "internalType": "bytes32",
              "name": "currentHandoverHash",
              "type": "bytes32"
            },
            {
              "internalType": "bool",
              "name": "exists",
              "type": "bool"
            },
            {
              "components": [
                {
                  "internalType": "address",
                  "name": "verifier",
                  "type": "address"
                },
                {
                  "internalType": "uint256",
                  "name": "timestamp",
                  "type": "uint256"
                },
                {
                  "internalType": "string",
                  "name": "location",
                  "type": "string"
                },
                {
                  "internalType": "string",
                  "name": "remarks",
                  "type": "string"
                }
              ],
              "internalType": "struct SupplyChain.VerificationLog[]",
              "name": "verificationHistory",
              "type": "tuple[]"
            },
            {
              "components": [
                {
                  "internalType": "string",
                  "name": "customerName",
                  "type": "string"
                },
                {
                  "internalType": "string",
                  "name": "location",
                  "type": "string"
                },
                {
                  "internalType": "uint256",
                  "name": "timestamp",
                  "type": "uint256"
                },
                {
                  "internalType": "address",
                  "name": "claimedBy",
                  "type": "address"
                },
                {
                  "internalType": "bool",
                  "name": "isClaimed",
                  "type": "bool"
                }
              ],
              "internalType": "struct SupplyChain.CustomerClaim",
              "name": "customerClaim",
              "type": "tuple"
            },
            {
              "internalType": "string",
              "name": "productCertificate",
              "type": "string"
            }
          ],
          "internalType": "struct SupplyChain.Product",
          "name": "",
          "type": "tuple"
        }
      ],
      "stateMutability": "view",
      "type": "function"
    },
    {
      "inputs": [
        {
          "internalType": "bytes32",
          "name": "role",
          "type": "bytes32"
        }
      ],
      "name": "getRoleAdmin",
      "outputs": [
        {
          "internalType": "bytes32",
          "name": "",
          "type": "bytes32"
        }
      ],
      "stateMutability": "view",
      "type": "function"
    },
    {
      "inputs": [
        {
          "internalType": "uint256",
          "name": "_id",
          "type": "uint256"
        }
      ],
      "name": "getVerificationHistory",
      "outputs": [
        {
          "components": [
            {
              "internalType": "address",
              "name": "verifier",
              "type": "address"
            },
            {
              "internalType": "uint256",
              "name": "timestamp",
              "type": "uint256"
            },
            {
              "internalType": "string",
              "name": "location",
              "type": "string"
            },
            {
              "internalType": "string",
              "name": "remarks",
              "type": "string"
            }
          ],
          "internalType": "struct SupplyChain.VerificationLog[]",
          "name": "",
          "type": "tuple[]"
        }
      ],
      "stateMutability": "view",
      "type": "function"
    },
    {
      "inputs": [
        {
          "internalType": "bytes32",
          "name": "role",
          "type": "bytes32"
        },
        {
          "internalType": "address",
          "name": "account",
          "type": "address"
        }
      ],
      "name": "grantRole",
      "outputs": [],
      "stateMutability": "nonpayable",
      "type": "function"
    },
    {
      "inputs": [
        {
          "internalType": "bytes32",
          "name": "role",
          "type": "bytes32"
        },
        {
          "internalType": "address",
          "name": "account",
          "type": "address"
        }
      ],
      "name": "hasRole",
      "outputs": [
        {
          "internalType": "bool",
          "name": "",
          "type": "bool"
        }
      ],
      "stateMutability": "view",
      "type": "function"
    },
    {
      "inputs": [
        {
          "internalType": "uint256",
          "name": "",
          "type": "uint256"
        },
        {
          "internalType": "uint256",
          "name": "",
          "type": "uint256"
        }
      ],
      "name": "productHistory",
      "outputs": [
        {
          "internalType": "address",
          "name": "actor",
          "type": "address"
        },
        {
          "internalType": "enum SupplyChain.State",
          "name": "state",
          "type": "uint8"
        },
        {
          "internalType": "uint256",
          "name": "timestamp",
          "type": "uint256"
        },
        {
          "internalType": "string",
          "name": "location",
          "type": "string"
        }
      ],
      "stateMutability": "view",
      "type": "function"
    },
    {
      "inputs": [
        {
          "internalType": "uint256",
          "name": "",
          "type": "uint256"
        }
      ],
      "name": "products",
      "outputs": [
        {
          "internalType": "uint256",
          "name": "id",
          "type": "uint256"
        },
        {
          "internalType": "string",
          "name": "name",
          "type": "string"
        },
        {
          "internalType": "address",
          "name": "currentOwner",
          "type": "address"
        },
        {
          "internalType": "enum SupplyChain.State",
          "name": "state",
          "type": "uint8"
        },
        {
          "internalType": "bytes32",
          "name": "currentSecretHash",
          "type": "bytes32"
        },
        {
          "internalType": "bytes32",
          "name": "currentHandoverHash",
          "type": "bytes32"
        },
        {
          "internalType": "bool",
          "name": "exists",
          "type": "bool"
        },
        {
          "components": [
            {
              "internalType": "string",
              "name": "customerName",
              "type": "string"
            },
            {
              "internalType": "string",
              "name": "location",
              "type": "string"
            },
            {
              "internalType": "uint256",
              "name": "timestamp",
              "type": "uint256"
            },
            {
              "internalType": "address",
              "name": "claimedBy",
              "type": "address"
            },
            {
              "internalType": "bool",
              "name": "isClaimed",
              "type": "bool"
            }
          ],
          "internalType": "struct SupplyChain.CustomerClaim",
          "name": "customerClaim",
          "type": "tuple"
        },
        {
          "internalType": "string",
          "name": "productCertificate",
          "type": "string"
        }
      ],
      "stateMutability": "view",
      "type": "function"
    },
    {
      "inputs": [
        {
          "internalType": "uint256",
          "name": "_id",
          "type": "uint256"
        },
        {
          "internalType": "string",
          "name": "_location",
          "type": "string"
        },
        {
          "internalType": "string",
          "name": "_remarks",
          "type": "string"
        }
      ],
      "name": "recordVerification",
      "outputs": [],
      "stateMutability": "nonpayable",
      "type": "function"
    },
    {
      "inputs": [
        {
          "internalType": "bytes32",
          "name": "role",
          "type": "bytes32"
        },
        {
          "internalType": "address",
          "name": "callerConfirmation",
          "type": "address"
        }
      ],
      "name": "renounceRole",
      "outputs": [],
      "stateMutability": "nonpayable",
      "type": "function"
    },
    {
      "inputs": [
        {
          "internalType": "bytes32",
          "name": "role",
          "type": "bytes32"
        },
        {
          "internalType": "address",
          "name": "account",
          "type": "address"
        }
      ],
      "name": "revokeRole",
      "outputs": [],
      "stateMutability": "nonpayable",
      "type": "function"
    },
    {
      "inputs": [
        {
          "internalType": "bytes4",
          "name": "interfaceId",
          "type": "bytes4"
        }
      ],
      "name": "supportsInterface",
      "outputs": [
        {
          "internalType": "bool",
          "name": "",
          "type": "bool"
        }
      ],
      "stateMutability": "view",
      "type": "function"
    },
    {
      "inputs": [
        {
          "internalType": "uint256",
          "name": "_id",
          "type": "uint256"
        },
        {
          "internalType": "address",
          "name": "_to",
          "type": "address"
        }
      ],
      "name": "transferOwnership",
      "outputs": [],
      "stateMutability": "nonpayable",
      "type": "function"
    },
    {
      "inputs": [
        {
          "internalType": "uint256",
          "name": "_id",
          "type": "uint256"
        },
        {
          "internalType": "bytes32",
          "name": "_newHash",
          "type": "bytes32"
        }
      ],
      "name": "updateSecret",
      "outputs": [],
      "stateMutability": "nonpayable",
      "type": "function"
    },
    {
      "inputs": [
        {
          "internalType": "uint256",
          "name": "_id",
          "type": "uint256"
        },
        {
          "internalType": "string",
          "name": "_secretKey",
          "type": "string"
        }
      ],
      "name": "verifyAndClaim",
      "outputs": [],
      "stateMutability": "nonpayable",
      "type": "function"
    },
    {
      "inputs": [
        {
          "internalType": "uint256",
          "name": "",
          "type": "uint256"
        }
      ],
      "name": "verifyLog",
      "outputs": [
        {
          "internalType": "address",
          "name": "verifier",
          "type": "address"
        },
        {
          "internalType": "uint256",
          "name": "time",
          "type": "uint256"
        },
        {
          "internalType": "bool",
          "name": "isFirstClaim",
          "type": "bool"
        }
      ],
      "stateMutability": "view",
      "type": "function"
    }
  ],
  "bytecode": "0x6080604052600060015534801561001557600080fd5b50610021600033610052565b5061004c7f6659d833875b88922d2576dad6c137a09ba676496bb2010bf8a72397792167a033610052565b506100fe565b6000828152602081815260408083206001600160a01b038516845290915281205460ff166100f4576000838152602081815260408083206001600160a01b03861684529091529020805460ff191660011790556100ac3390565b6001600160a01b0316826001600160a01b0316847f2f8788117e7eff1d82e926ec794901d17c78024a50270940304540a733656f0d60405160405180910390a45060016100f8565b5060005b92915050565b612d398061010d6000396000f3fe608060405234801561001057600080fd5b50600436106101585760003560e01c806345e1e7d1116100c3578063ad6d089e1161007c578063ad6d089e14610337578063afe3cf901461034a578063b9db15b4146103ad578063c8691b2a146103cd578063d547741f146103ed578063f0bd87cc1461040057600080fd5b806345e1e7d1146102a757806357b22597146102ba5780637acc0b20146102cd57806391d14854146102f5578063965288b014610308578063a217fddf1461032f57600080fd5b80632f2ff15d116101155780632f2ff15d146102185780632f819f381461022b57806336568abe1461023e5780633a7d2376146102515780633db371ed14610274578063405234751461028757600080fd5b806301ffc9a71461015d5780631569a7491461018557806319b8ccff1461019a5780632115e7bf146101ad578063248a9ca3146101e257806329507f7314610205575b600080fd5b61017061016b36600461218c565b610427565b60405190151581526020015b60405180910390f35b610198610193366004612205565b61045e565b005b6101986101a8366004612325565b6105f4565b6101d47f27d5ccc46db01bfa5691ce092fe276221c6cd0aa6d05765b52c3ddecfa70421a81565b60405190815260200161017c565b6101d46101f03660046123c0565b60009081526020819052604090206001015490565b6101986102133660046123f5565b610868565b6101986102263660046123f5565b610a75565b610198610239366004612421565b610aa0565b61019861024c3660046123f5565b610c98565b61026461025f366004612467565b610cd0565b60405161017c9493929190612511565b6101d4610282366004612550565b610db1565b61029a6102953660046123c0565b610eae565b60405161017c919061264f565b6101986102b5366004612467565b611093565b6101986102c8366004612662565b611195565b6102e06102db3660046123c0565b61143c565b60405161017c99989796959493929190612727565b6101706103033660046123f5565b61170a565b6101d47f6659d833875b88922d2576dad6c137a09ba676496bb2010bf8a72397792167a081565b6101d4600081565b610198610345366004612467565b611733565b6103866103583660046123c0565b6004602052600090815260409020805460018201546002909201546001600160a01b03909116919060ff1683565b604080516001600160a01b039094168452602084019290925215159082015260600161017c565b6103c06103bb3660046123c0565b611835565b60405161017c91906127a9565b6103e06103db3660046123c0565b611d1b565b60405161017c919061288e565b6101986103fb3660046123f5565b611e90565b6101d47f85faced7bde13e1a7dad704b895f006e704f207617d68166b31ba2d79624862d81565b60006001600160e01b03198216637965db0b60e01b148061045857506301ffc9a760e01b6001600160e01b03198316145b92915050565b600085815260026020526040902060050154859060ff1661049a5760405162461bcd60e51b815260040161049190612931565b60405180910390fd5b600260008781526020019081526020016000206006016040518060800160405280336001600160a01b0316815260200142815260200187878080601f016020809104026020016040519081016040528093929190818152602001838380828437600092019190915250505090825250604080516020601f8801819004810282018101909252868152918101919087908790819084018382808284376000920182905250939094525050835460018082018655948252602091829020845160049092020180546001600160a01b0319166001600160a01b039092169190911781559083015193810193909355506040810151909190600282019061059d90826129f4565b50606082015160038201906105b290826129f4565b505060405142815233915087907fa913def5e0a2f15c60fa63fe23979256a1ff8d6d893238336fa0683b9951266d9060200160405180910390a3505050505050565b600084815260026020526040902060050154849060ff166106275760405162461bcd60e51b815260040161049190612931565b60008581526002602090815260409182902060030154915161064b91879101612ab2565b604051602081830303815290604052805190602001201461067e5760405162461bcd60e51b815260040161049190612ace565b6000858152600260205260409020600a0154600160a01b900460ff16156106f65760405162461bcd60e51b815260206004820152602660248201527f50726f647563743a20416c726561647920636c61696d6564206279206120637560448201526539ba37b6b2b960d11b6064820152608401610491565b600085815260026020818152604080842080840180543360ff60a01b1981166001600160a81b0319831617600360a01b17909255835160a0810185528a81528086018a90524294810194909452606084019190915260016080840152948a90529290915280516001600160a01b0390931692909160070190819061077a90826129f4565b506020820151600182019061078f90826129f4565b50604082015160028201556060820151600391820180546080909401511515600160a01b026001600160a81b03199094166001600160a01b0390921691909117929092179091556107e290879085611eb5565b336001600160a01b0316867f8872de29be3b60dcf930e843c87a99e4eda3ecc6e3d2b56096e92f83e10f329286864260405161082093929190612b14565b60405180910390a360405133906001600160a01b0383169088907f16b85f49bf01212961345d3016c9a531894accf62eb7680f2045d79185cc0ec090600090a4505050505050565b600082815260026020526040902060050154829060ff1661089b5760405162461bcd60e51b815260040161049190612931565b6000838152600260208190526040909120015483906001600160a01b031633146108d75760405162461bcd60e51b815260040161049190612b4a565b8360038060008381526002602081905260409091200154600160a01b900460ff16600481111561090957610909612489565b146109625760405162461bcd60e51b8152602060048201526024808201527f4c6f6769633a20496e76616c696420737461746520666f7220746869732061636044820152633a34b7b760e11b6064820152608401610491565b6001600160a01b0385166109c35760405162461bcd60e51b815260206004820152602260248201527f4c6f6769633a20496e76616c69642064657374696e6174696f6e206164647265604482015261737360f01b6064820152608401610491565b60008681526002602081815260409283902090910180546001600160a01b038981166001600160a01b03198316179092558351808501909452601084526f14d958dbdb99185c9e4813585c9ad95d60821b928401929092521690610a2b908890600390611eb5565b856001600160a01b0316816001600160a01b0316887f16b85f49bf01212961345d3016c9a531894accf62eb7680f2045d79185cc0ec060405160405180910390a450505050505050565b600082815260208190526040902060010154610a9081611f95565b610a9a8383611fa2565b50505050565b600082815260026020526040902060050154829060ff16610ad35760405162461bcd60e51b815260040161049190612931565b600083815260026020908152604091829020600301549151610af791859101612ab2565b6040516020818303038152906040528051906020012014610b2a5760405162461bcd60e51b815260040161049190612ace565b60008381526004602052604081206001810154909103610c4557600084815260026020818152604092839020820180543360ff60a01b1981166001600160a81b0319831617600360a01b1790925585546001600160a01b031916909117855542600186810191909155928501805460ff19169093179092558251808401909352600c83526b22b7321021b7b739bab6b2b960a11b908301526001600160a01b031690610bda908690600390611eb5565b604051339086907ff8f06a75cbe9e507c8a5d8f6a0beb41dc0f2fd2a023efa6e39eed1342958642590600090a360405133906001600160a01b0383169087907f16b85f49bf01212961345d3016c9a531894accf62eb7680f2045d79185cc0ec090600090a450610a9a565b60018101548154604080519283526001600160a01b039091166020830152339186917f497c1d4589b9958453a8b75b67fac6eca9cb6babcddc5396ef4c46de723bedd5910160405180910390a350505050565b6001600160a01b0381163314610cc15760405163334bd91960e11b815260040160405180910390fd5b610ccb8282612034565b505050565b60036020528160005260406000208181548110610cec57600080fd5b60009182526020909120600390910201805460018201546002830180546001600160a01b0384169650600160a01b90930460ff169450909291610d2e90612972565b80601f0160208091040260200160405190810160405280929190818152602001828054610d5a90612972565b8015610da75780601f10610d7c57610100808354040283529160200191610da7565b820191906000526020600020905b815481529060010190602001808311610d8a57829003601f168201915b5050505050905084565b6001805460009182610dc283612b91565b909155505060018054600081815260026020526040902081815590918101610deb888a83612bb8565b506002810180546001600160a81b0319163360ff60a01b1916179055600381018690556000600482015560058101805460ff19166001179055600b8101610e33858783612bb8565b50610e5f82600060405180604001604052806007815260200166466163746f727960c81b815250611eb5565b336001600160a01b0316827f91bfc064380de20e1c90ea2ed78d0358b4ab45d446c0b93b0b07bc86f95897da8a8a604051610e9b929190612c77565b60405180910390a3509695505050505050565b600081815260026020526040902060050154606090829060ff16610ee45760405162461bcd60e51b815260040161049190612931565b600083815260026020908152604080832060060180548251818502810185019093528083529193909284015b82821015611086576000848152602090819020604080516080810182526004860290920180546001600160a01b0316835260018101549383019390935260028301805492939291840191610f6390612972565b80601f0160208091040260200160405190810160405280929190818152602001828054610f8f90612972565b8015610fdc5780601f10610fb157610100808354040283529160200191610fdc565b820191906000526020600020905b815481529060010190602001808311610fbf57829003601f168201915b50505050508152602001600382018054610ff590612972565b80601f016020809104026020016040519081016040528092919081815260200182805461102190612972565b801561106e5780601f106110435761010080835404028352916020019161106e565b820191906000526020600020905b81548152906001019060200180831161105157829003601f168201915b50505050508152505081526020019060010190610f10565b5050505091505b50919050565b600082815260026020526040902060050154829060ff166110c65760405162461bcd60e51b815260040161049190612931565b6000838152600260208190526040909120015483906001600160a01b031633146111025760405162461bcd60e51b815260040161049190612b4a565b83600360008281526002602081905260409091200154600160a01b900460ff16600481111561113357611133612489565b036111505760405162461bcd60e51b815260040161049190612ca6565b60008581526002602052604080822060040186905551339187917fee2900dacd26c67f7444fe1b5232fd7bd6fcc7cf2db1b189a01516d06a70f07a9190a35050505050565b600084815260026020526040902060050154849060ff166111c85760405162461bcd60e51b815260040161049190612931565b84600360008281526002602081905260409091200154600160a01b900460ff1660048111156111f9576111f9612489565b036112165760405162461bcd60e51b815260040161049190612ca6565b60008681526002602090815260409182902060040154915161123a91889101612ab2565b60405160208183030381529060405280519060200120146112ae5760405162461bcd60e51b815260206004820152602860248201527f53656375726974793a20496e76616c69642068616e646f7665722070617373206044820152671c1c9bdd9a59195960c21b6064820152608401610491565b6000868152600260208190526040909120018054336001600160a01b0319821681179092556001600160a01b031690611308907f85faced7bde13e1a7dad704b895f006e704f207617d68166b31ba2d79624862d9061170a565b1561133d5760008781526002602081905260409091200180546001919060ff60a01b1916600160a01b835b02179055506113b7565b6113677f27d5ccc46db01bfa5691ce092fe276221c6cd0aa6d05765b52c3ddecfa70421a3361170a565b156113935760008781526002602081905260409091208101805460ff60a01b1916600160a01b83611333565b600087815260026020819052604090912001805460ff60a01b1916600160a01b1790555b60008781526002602081905260409091206004810187905501546113e7908890600160a01b900460ff1686611eb5565b336001600160a01b0316816001600160a01b0316887fd67aa7c45f61c95d774abbdd7384089523fabb58f544debbc64c53e937d977418760405161142b9190612cf0565b60405180910390a450505050505050565b6002602052600090815260409020805460018201805491929161145e90612972565b80601f016020809104026020016040519081016040528092919081815260200182805461148a90612972565b80156114d75780601f106114ac576101008083540402835291602001916114d7565b820191906000526020600020905b8154815290600101906020018083116114ba57829003601f168201915b5050505060028301546003840154600485015460058601546040805160a0810190915260078801805497986001600160a01b03871698600160a01b90970460ff908116985095969495909316938290829061153190612972565b80601f016020809104026020016040519081016040528092919081815260200182805461155d90612972565b80156115aa5780601f1061157f576101008083540402835291602001916115aa565b820191906000526020600020905b81548152906001019060200180831161158d57829003601f168201915b505050505081526020016001820180546115c390612972565b80601f01602080910402602001604051908101604052809291908181526020018280546115ef90612972565b801561163c5780601f106116115761010080835404028352916020019161163c565b820191906000526020600020905b81548152906001019060200180831161161f57829003601f168201915b5050509183525050600282015460208201526003909101546001600160a01b0381166040830152600160a01b900460ff161515606090910152600b8201805491929161168790612972565b80601f01602080910402602001604051908101604052809291908181526020018280546116b390612972565b80156117005780601f106116d557610100808354040283529160200191611700565b820191906000526020600020905b8154815290600101906020018083116116e357829003601f168201915b5050505050905089565b6000918252602082815260408084206001600160a01b0393909316845291905290205460ff1690565b600082815260026020526040902060050154829060ff166117665760405162461bcd60e51b815260040161049190612931565b6000838152600260208190526040909120015483906001600160a01b031633146117a25760405162461bcd60e51b815260040161049190612b4a565b83600360008281526002602081905260409091200154600160a01b900460ff1660048111156117d3576117d3612489565b036117f05760405162461bcd60e51b815260040161049190612ca6565b60008581526002602052604080822060030186905551339187917fee2900dacd26c67f7444fe1b5232fd7bd6fcc7cf2db1b189a01516d06a70f07a9190a35050505050565b61183d6120dc565b60026000838152602001908152602001600020604051806101400160405290816000820154815260200160018201805461187690612972565b80601f01602080910402602001604051908101604052809291908181526020018280546118a290612972565b80156118ef5780601f106118c4576101008083540402835291602001916118ef565b820191906000526020600020905b8154815290600101906020018083116118d257829003601f168201915b505050918352505060028201546001600160a01b0381166020830152604090910190600160a01b900460ff16600481111561192c5761192c612489565b600481111561193d5761193d612489565b815260200160038201548152602001600482015481526020016005820160009054906101000a900460ff1615151515815260200160068201805480602002602001604051908101604052809291908181526020016000905b82821015611b0b576000848152602090819020604080516080810182526004860290920180546001600160a01b03168352600181015493830193909352600283018054929392918401916119e890612972565b80601f0160208091040260200160405190810160405280929190818152602001828054611a1490612972565b8015611a615780601f10611a3657610100808354040283529160200191611a61565b820191906000526020600020905b815481529060010190602001808311611a4457829003601f168201915b50505050508152602001600382018054611a7a90612972565b80601f0160208091040260200160405190810160405280929190818152602001828054611aa690612972565b8015611af35780601f10611ac857610100808354040283529160200191611af3565b820191906000526020600020905b815481529060010190602001808311611ad657829003601f168201915b50505050508152505081526020019060010190611995565b505050508152602001600782016040518060a0016040529081600082018054611b3390612972565b80601f0160208091040260200160405190810160405280929190818152602001828054611b5f90612972565b8015611bac5780601f10611b8157610100808354040283529160200191611bac565b820191906000526020600020905b815481529060010190602001808311611b8f57829003601f168201915b50505050508152602001600182018054611bc590612972565b80601f0160208091040260200160405190810160405280929190818152602001828054611bf190612972565b8015611c3e5780601f10611c1357610100808354040283529160200191611c3e565b820191906000526020600020905b815481529060010190602001808311611c2157829003601f168201915b505050918352505060028201546020808301919091526003909201546001600160a01b0381166040830152600160a01b900460ff161515606090910152908252600b830180549290910191611c9290612972565b80601f0160208091040260200160405190810160405280929190818152602001828054611cbe90612972565b8015611d0b5780601f10611ce057610100808354040283529160200191611d0b565b820191906000526020600020905b815481529060010190602001808311611cee57829003601f168201915b5050505050815250509050919050565b600081815260026020526040902060050154606090829060ff16611d515760405162461bcd60e51b815260040161049190612931565b600083815260036020908152604080832080548251818502810185019093528083529193909284015b8282101561108657600084815260209081902060408051608081019091526003850290910180546001600160a01b03811683529192909190830190600160a01b900460ff166004811115611dd057611dd0612489565b6004811115611de157611de1612489565b815260200160018201548152602001600282018054611dff90612972565b80601f0160208091040260200160405190810160405280929190818152602001828054611e2b90612972565b8015611e785780601f10611e4d57610100808354040283529160200191611e78565b820191906000526020600020905b815481529060010190602001808311611e5b57829003601f168201915b50505050508152505081526020019060010190611d7a565b600082815260208190526040902060010154611eab81611f95565b610a9a8383612034565b600360008481526020019081526020016000206040518060800160405280336001600160a01b03168152602001846004811115611ef457611ef4612489565b81524260208083019190915260409091018490528254600181018455600093845292819020825160039094020180546001600160a01b039094166001600160a01b031985168117825591830151929390929183916001600160a81b03191617600160a01b836004811115611f6a57611f6a612489565b02179055506040820151600182015560608201516002820190611f8d90826129f4565b505050505050565b611f9f813361209f565b50565b6000611fae838361170a565b61202c576000838152602081815260408083206001600160a01b03861684529091529020805460ff19166001179055611fe43390565b6001600160a01b0316826001600160a01b0316847f2f8788117e7eff1d82e926ec794901d17c78024a50270940304540a733656f0d60405160405180910390a4506001610458565b506000610458565b6000612040838361170a565b1561202c576000838152602081815260408083206001600160a01b0386168085529252808320805460ff1916905551339286917ff6391f5c32d9c69d2a47ea670b442974b53935d1edc7fd64eb21e047a839171b9190a4506001610458565b6120a9828261170a565b6120d85760405163e2517d3f60e01b81526001600160a01b038216600482015260248101839052604401610491565b5050565b604051806101400160405280600081526020016060815260200160006001600160a01b031681526020016000600481111561211957612119612489565b815260200160008019168152602001600080191681526020016000151581526020016060815260200161217f6040518060a0016040528060608152602001606081526020016000815260200160006001600160a01b031681526020016000151581525090565b8152602001606081525090565b60006020828403121561219e57600080fd5b81356001600160e01b0319811681146121b657600080fd5b9392505050565b60008083601f8401126121cf57600080fd5b5081356001600160401b038111156121e657600080fd5b6020830191508360208285010111156121fe57600080fd5b9250929050565b60008060008060006060868803121561221d57600080fd5b8535945060208601356001600160401b0381111561223a57600080fd5b612246888289016121bd565b90955093505060408601356001600160401b0381111561226557600080fd5b612271888289016121bd565b969995985093965092949392505050565b634e487b7160e01b600052604160045260246000fd5b600082601f8301126122a957600080fd5b81356001600160401b038111156122c2576122c2612282565b604051601f8201601f19908116603f011681016001600160401b03811182821017156122f0576122f0612282565b60405281815283820160200185101561230857600080fd5b816020850160208301376000918101602001919091529392505050565b6000806000806080858703121561233b57600080fd5b8435935060208501356001600160401b0381111561235857600080fd5b61236487828801612298565b93505060408501356001600160401b0381111561238057600080fd5b61238c87828801612298565b92505060608501356001600160401b038111156123a857600080fd5b6123b487828801612298565b91505092959194509250565b6000602082840312156123d257600080fd5b5035919050565b80356001600160a01b03811681146123f057600080fd5b919050565b6000806040838503121561240857600080fd5b82359150612418602084016123d9565b90509250929050565b6000806040838503121561243457600080fd5b8235915060208301356001600160401b0381111561245157600080fd5b61245d85828601612298565b9150509250929050565b6000806040838503121561247a57600080fd5b50508035926020909101359150565b634e487b7160e01b600052602160045260246000fd5b600581106124bd57634e487b7160e01b600052602160045260246000fd5b9052565b60005b838110156124dc5781810151838201526020016124c4565b50506000910152565b600081518084526124fd8160208601602086016124c1565b601f01601f19169290920160200192915050565b6001600160a01b038516815261252a602082018561249f565b82604082015260806060820152600061254660808301846124e5565b9695505050505050565b60008060008060006060868803121561256857600080fd5b85356001600160401b0381111561257e57600080fd5b61258a888289016121bd565b9096509450506020860135925060408601356001600160401b0381111561226557600080fd5b600082825180855260208501945060208160051b8301016020850160005b8381101561264357601f19858403018852815160018060a01b0381511684526020810151602085015260408101516080604086015261261060808601826124e5565b905060608201519150848103606086015261262b81836124e5565b60209a8b019a909550939093019250506001016125ce565b50909695505050505050565b6020815260006121b660208301846125b0565b6000806000806080858703121561267857600080fd5b8435935060208501356001600160401b0381111561269557600080fd5b6126a187828801612298565b9350506040850135915060608501356001600160401b038111156123a857600080fd5b6000815160a084526126d960a08501826124e5565b9050602083015184820360208601526126f282826124e5565b604085810151908701526060808601516001600160a01b03169087015260809485015115159490950193909352509192915050565b8981526101206020820152600061274261012083018b6124e5565b6001600160a01b038a16604084015261275e606084018a61249f565b8760808401528660a084015285151560c084015282810360e084015261278481866126c4565b905082810361010084015261279981856124e5565b9c9b505050505050505050505050565b60208152815160208201526000602083015161014060408401526127d16101608401826124e5565b905060408401516127ed60608501826001600160a01b03169052565b506060840151612800608085018261249f565b50608084015160a084015260a084015160c084015260c084015161282860e085018215159052565b5060e0840151838203601f190161010085015261284582826125b0565b915050610100840151601f198483030161012085015261286582826126c4565b915050610120840151601f198483030161014085015261288582826124e5565b95945050505050565b6000602082016020835280845180835260408501915060408160051b86010192506020860160005b8281101561292557868503603f19018452815180516001600160a01b03168652602080820151906128e99088018261249f565b5060408101516040870152606081015190506080606087015261290f60808701826124e5565b95505060209384019391909101906001016128b6565b50929695505050505050565b60208082526021908201527f4c6f6f6b75703a2050726f6475637420494420646f6573206e6f7420657869736040820152601d60fa1b606082015260800190565b600181811c9082168061298657607f821691505b60208210810361108d57634e487b7160e01b600052602260045260246000fd5b601f821115610ccb57806000526020600020601f840160051c810160208510156129cd5750805b601f840160051c820191505b818110156129ed57600081556001016129d9565b5050505050565b81516001600160401b03811115612a0d57612a0d612282565b612a2181612a1b8454612972565b846129a6565b6020601f821160018114612a555760008315612a3d5750848201515b600019600385901b1c1916600184901b1784556129ed565b600084815260208120601f198516915b82811015612a855787850151825560209485019460019092019101612a65565b5084821015612aa35786840151600019600387901b60f8161c191681555b50505050600190811b01905550565b60008251612ac48184602087016124c1565b9190910192915050565b60208082526026908201527f53656375726974793a20496e76616c69642073656372657420636f64652070726040820152651bdd9a59195960d21b606082015260800190565b606081526000612b2760608301866124e5565b8281036020840152612b3981866124e5565b915050826040830152949350505050565b60208082526027908201527f4163636573733a2043616c6c6572206973206e6f74207468652063757272656e6040820152663a1037bbb732b960c91b606082015260800190565b600060018201612bb157634e487b7160e01b600052601160045260246000fd5b5060010190565b6001600160401b03831115612bcf57612bcf612282565b612be383612bdd8354612972565b836129a6565b6000601f841160018114612c175760008515612bff5750838201355b600019600387901b1c1916600186901b1783556129ed565b600083815260209020601f19861690835b82811015612c485786850135825560209485019460019092019101612c28565b5086821015612c655760001960f88860031b161c19848701351681555b505060018560011b0183555050505050565b60208152816020820152818360408301376000818301604090810191909152601f909201601f19160101919050565b6020808252602a908201527f53656375726974793a2050726f6475637420616c726561647920736f6c6420616040820152691b990818db185a5b595960b21b606082015260800190565b6020815260006121b660208301846124e556fea264697066735822122093d02633bf708d558ef4a40c81481a857731a73acc6f9448945c7cb79e8ba34764736f6c634300081c0033",
  "linkReferences": {},
  "deployedLinkReferences": {}
}